:020000040800F2
:1000000000000220CD5800085118000859180008B7
:100010006118000869180008711800080000000045
:100020000000000000000000000000007918000837
:10003000871800080000000095180008A3180008A1
:100040001D5900081D5900081D5900081D590008B8
:100050001D5900081D5900081D5900081D590008A8
:100060001D5900081D5900081D5900081D59000898
:100070001D5900081D5900081D5900081D59000888
:100080001D5900081D5900081D5900081D59000878
:100090001D5900081D5900081D5900081D59000868
:1000A0001D5900081D5900081D5900081D59000858
:1000B000B11800081D5900081D5900081D590008F5
:1000C0001D5900081D5900081D590008C5180008D1
:1000D0001D590008D91800081D5900081D590008AD
:1000E0001D5900081D5900081D5900081D59000818
:1000F0001D5900081D5900081D5900081D59000808
:100100001D5900081D5900081D5900081D590008F7
:100110001D5900081D5900081D5900081D590008E7
:100120001D5900081D590008ED18000801190008A4
:100130001D5900081D5900081D5900081D590008C7
:100140001D5900081D5900081D5900081D590008B7
:100150001D5900081D590008151900081D590008EF
:100160001D5900081D5900081D5900081D59000897
:100170001D5900081D5900081D5900080000000005
:080180001D5900081D5900087B
:100188000348044B834202D0034B03B1184770471E
:100198001000002010000020000000000548064B59
:1001A8001B1AD90F01EBA301491002D0034B03B16D
:1001B80018477047100000201000002000000000C1
:1001C80010B5064C237843B9FFF7DAFF044B13B197
:1001D8000448AFF300800123237010BD10000020F5
:1001E800000000002059000808B5044B1BB1044961
:1001F8000448AFF30080BDE80840CFE700000000E6
:10020800140000202059000870B50F4B0F4DAB4269
:10021800A3EB050607D0B610002455F8043B0134BB
:100228009847A642F9D805F077FB094D094B5E1BA4
:10023800AB424FEAA60606D0002455F8043B013429
:100248009847A642F9D870BD548D0008548D00080F
:10025800548D00085C8D0008830730B547D0541EC4
:10026800002A3ED0CAB2034601E0013C39D303F864
:10027800012B9D07F9D1032C2CD9CDB205EB05250F
:100288000F2C05EB054535D9A4F1100222F00F0C0F
:1002980003F1100EE6444FEA121C1A46C2E9005553
:1002A800C2E9025510327245F8D10CF1010214F07E
:1002B8000C0F03EB021204F00F0C13D0ACF1040383
:1002C80023F003030433134442F8045B9342FBD145
:1002D8000CF003042CB1C9B21C4403F8011BA3425F
:1002E800FBD130BD64461346002CF4D1F9E7034630
:1002F8001446C0E71A46A446E0E700BF53B94AB916
:10030800002908BF00281CBF4FF0FF314FF0FF3015
:1003180000F06AB9ADF1080C6DE904CE00F006F8FA
:10032800DDF804E0DDE9022304B070472DE9F04769
:10033800089D0E4604460F46002B4AD194468C452C
:10034800B2FA82F260D942B1C2F12003974020FA92
:1003580003F30CFA02FC1F4394404FEA1C4E1FFAA9
:100368008CF6B7FBFEF1230C0EFB117743EA07432B
:1003780001FB06F098420AD91CEB030301F1FF3791
:1003880080F01581984240F21281023963441B1AA9
:10039800A4B2B3FBFEF00EFB103344EA034400FBA7
:1003A80006F6A6420AD91CEB040400F1FF3380F0DC
:1003B8000081A64240F2FD806444023840EA0140D0
:1003C800A41B00211DB1D4400023C5E90043BDE8AA
:1003D800F0878B4205D90DB1C5E900010021084617
:1003E800F5E7B3FA83F1002946D1B34202D382423A
:1003F80000F2F580841A66EB030201201746002DEF
:10040800E5D0C5E90047E2E7002A40F09380A1EB78
:100418000C034FEA1C471FFA8CFE0121B3FBF7F6C9
:1004280007FB1630230C43EA00430EFB06F0984204
:1004380008D91CEB030306F1FF3802D2984200F2F8
:10044800D08046461B1AA4B2B3FBF7F007FB103363
:1004580044EA03440EFB00FEA64508D91CEB04043D
:1004680000F1FF3302D2A64500F2B6801846A4EB8D
:100478000E0440EA0640A5E7C1F120078B4022FAA6
:1004880007FC4CEA030C06FA01FE20FA07F426FAE8
:1004980007F344EA0E0400FA01F84FEA1C404FEA59
:1004A8001449B3FBF0FE1FFA8CF600FB1E3349EA31
:1004B80003430EFB06F9994502FA01F20BD91CEB2E
:1004C80003030EF1FF3A80F08580994540F282805F
:1004D800AEF1020E6344A3EB0909A4B2B9FBF0F331
:1004E80000FB139944EA094403FB06F6A64208D91F
:1004F8001CEB040403F1FF3068D2A64266D9023B24
:10050800644443EA0E40A41BA0FB02E6B4427346CF
:10051800B14652D34FD05DB1B8EB030264EB090486
:1005280004FA07F722FA01F31F43CC40C5E9007427
:1005380000214CE7C2F1200120FA01F30CFA02FC79
:1005480026FA01F1964033434FEA1C471FFA8CFE06
:10055800B1FBF7F007FB1016190C41EA064100FB46
:100568000EF68E4204FA02F408D91CEB010100F1E0
:10057800FF382DD28E422BD902386144891B9BB299
:10058800B1FBF7F607FB161143EA014306FB0EF130
:10059800994208D91CEB030306F1FF3814D299429B
:1005A80012D9023E63445B1A46EA004136E73946EF
:1005B800EDE6184602E7F045ADD2BEEB020366EB66
:1005C8000C060138B146A6E74646ECE7034698E72D
:1005D8004046D3E7D6467EE76444023847E70846F4
:1005E8000DE7023E63442DE7704700BF80B582B037
:1005F80000AF78607B6898687B689B890022194601
:1006080002F0ECFD00BF0837BD4680BD80B582B062
:1006180000AF78607B6898687B689B8901221946DF
:1006280002F0DCFD00BF0837BD4680BD80B582B052
:1006380000AF78607B6898687B68DB890022194680
:1006480002F0CCFD00BF0837BD4680BD80B582B042
:1006580000AF78607B6898687B68DB89012219465F
:1006680002F0BCFD00BF0837BD4680BD80B582B032
:1006780000AF78607B6898687B689B8A002219467F
:1006880002F0ACFD00BF0837BD4680BD80B582B022
:1006980000AF78607B6898687B689B8A012219465E
:1006A80002F09CFD00BF0837BD4680BD80B582B012
:1006B80000AF78607B6898687B68DB8A00221946FF
:1006C80002F08CFD00BF0837BD4680BD80B582B002
:1006D80000AF78607B6898687B68DB8A01221946DE
:1006E80002F07CFD00BF0837BD4680BD80B582B0F2
:1006F80000AF78607B6898687B681B8A002219467F
:1007080002F06CFD00BF0837BD4680BD80B582B0E1
:1007180000AF78607B6898687B681B8A012219465D
:1007280002F05CFD00BF0837BD4680BD80B582B0D1
:1007380000AF78607B6898687B685B8A01221946FD
:1007480002F04CFD00BF0837BD4680BD80B485B0BF
:1007580000AFF860B96011461A460B46FB80134695
:10076800BB80FB68BA6A5A60FB6800221A70FB6893
:100778005B68002B03D1FB6800221A7602E0FB6855
:1007880001221A76FB68BA689A60FB68FA889A812F
:10079800FB68BA88DA81FB683A8B9A82FB68BA8B65
:1007A800DA82FB683A8C1A82FB68BA8C5A82FB6838
:1007B80018461437BD465DF8047B704780B483B093
:1007C80000AF786000BF0C37BD465DF8047B70470A
:1007D80080B584B000AF78600B46FB707868FFF78F
:1007E80085FF0023FB7316E07868FFF7FFFE97F993
:1007F8000330002B03DA7868FFF728FF02E07868F7
:10080800FFF714FF7868FFF701FFFB785B00FB70C8
:10081800FB7B0133FB73FB7B072BE5D97868FFF77C
:1008280075FF00BF1037BD4680BD80B582B000AFF0
:100838007860084611461A460346FB700B46BB70A3
:1008480013463B807B681B7E002B08D07B6858686A
:10085800F91C4FF47A73012201F051FA04E0FB7895
:1008680019467868FFF7B4FF00BF0837BD4680BD5A
:1008780080B584B000AFF860084611461A460346B2
:100888007B810B467B721346FB807B891B0A9BB2DC
:10089800DAB21E4B1A707B89DAB21C4B5A70FB68AD
:1008A8001B7E002B21D07B7A002B15D0174B5B7851
:1008B8001BB21B021AB2154B1B781BB213431AB298
:1008C800398BFB8890B2FA68C9010B440C335B0082
:1008D800134402465A8014E0FB6858684FF47A7350
:1008E80002220A4901F00BFA0BE0084B1B78194663
:1008F800F868FFF76DFF054B5B781946F868FFF756
:1009080067FF00BF1037BD4680BD00BF2C00002028
:1009180080B582B000AF78600B46FB707868FFF74F
:10092800C5FE7B681B7E002B08D07B685868F91CC5
:100938004FF47A73012201F0E2F904E0FB781946DA
:100948007868FFF745FF7868FFF7C0FE00BF0837F3
:10095800BD4680BD80B586B002AFF8600846114636
:100968001A4603467B810B463B811346FB802A21AE
:10097800F868FFF7CDFF7B89023399B20023009313
:1009880000230022F868FFF773FFFB88023399B24F
:100998000023009300230022F868FFF769FF2B214A
:1009A800F868FFF7B5FF3B89013399B2002300933C
:1009B80000230022F868FFF75BFF3B8B013399B2F5
:1009C8000023009300230022F868FFF751FF2C2131
:1009D800F868FFF79DFF00BF1037BD4680BD80B5A2
:1009E80084B002AF78607868FFF7E8FE7868FFF7B0
:1009F8003DFE642003F092F97868FFF747FE642013
:100A080003F08CF97868FFF791FE642003F086F90B
:100A180011217868FFF77CFF782003F07FF9B12176
:100A28007868FFF775FF0023009300230022052153
:100A38007868FFF7FAFE00230093002300223C2188
:100A48007868FFF7F2FE00230093002300223C2180
:100A58007868FFF7EAFEB2217868FFF759FF0023AC
:100A680000930023002205217868FFF7DEFE0023AB
:100A78000093002300223C217868FFF7D6FE00236C
:100A88000093002300223C217868FFF7CEFEB321B3
:100A98007868FFF73DFF002300930023002205211B
:100AA8007868FFF7C2FE00230093002300223C2150
:100AB8007868FFF7BAFE00230093002300223C2148
:100AC8007868FFF7B2FE0023009300230022052177
:100AD8007868FFF7AAFE00230093002300223C2138
:100AE8007868FFF7A2FE00230093002300223C2130
:100AF8007868FFF79AFEB4217868FFF709FF0023AA
:100B080000930023002203217868FFF78EFEC0219E
:100B18007868FFF7FDFE00230093002300222821B8
:100B28007868FFF782FE0023009300230022082143
:100B38007868FFF77AFE002300930023002204213F
:100B48007868FFF772FEC1217868FFF7E1FE00239D
:100B5800009300230022C0217868FFF766FEC221B7
:100B68007868FFF7D5FE00230093002300220D21AB
:100B78007868FFF75AFE0023009300230022002123
:100B88007868FFF752FEC3217868FFF7C1FE00239B
:100B98000093002300228D217868FFF746FE00238A
:100BA8000093002300222A217868FFF73EFEC42123
:100BB8007868FFF7ADFE00230093002300228D2103
:100BC8007868FFF732FE0023009300230022EE210D
:100BD8007868FFF72AFEC5217868FFF799FE002399
:100BE8000093002300221A217868FFF71EFE3621A1
:100BF8007868FFF78DFE0023009300230022C021B0
:100C08007868FFF712FEE0217868FFF781FE00237D
:100C180000930023002204217868FFF706FE0023D2
:100C280000930023002222217868FFF7FEFD0023AD
:100C380000930023002207217868FFF7F6FD0023C0
:100C48000093002300220A217868FFF7EEFD0023B5
:100C58000093002300222E217868FFF7E6FD002389
:100C680000930023002230217868FFF7DEFD00237F
:100C780000930023002225217868FFF7D6FD002382
:100C88000093002300222A217868FFF7CEFD002375
:100C980000930023002228217868FFF7C6FD00236F
:100CA80000930023002226217868FFF7BEFD002369
:100CB8000093002300222E217868FFF7B6FD002359
:100CC8000093002300223A217868FFF7AEFD002345
:100CD80000930023002200217868FFF7A6FD002377
:100CE80000930023002201217868FFF79EFD00236E
:100CF80000930023002203217868FFF796FD002364
:100D080000930023002213217868FFF78EFDE1216C
:100D18007868FFF7FDFD00230093002300220421DB
:100D28007868FFF782FD0023009300230022162134
:100D38007868FFF77AFD002300930023002206213C
:100D48007868FFF772FD00230093002300220D212D
:100D58007868FFF76AFD00230093002300222D2105
:100D68007868FFF762FD0023009300230022262104
:100D78007868FFF75AFD00230093002300222321FF
:100D88007868FFF752FD00230093002300222721F3
:100D98007868FFF74AFD00230093002300222721EB
:100DA8007868FFF742FD00230093002300222521E5
:100DB8007868FFF73AFD00230093002300222D21D5
:100DC8007868FFF732FD00230093002300223B21BF
:100DD8007868FFF72AFD00230093002300220021F2
:100DE8007868FFF722FD00230093002300220121E9
:100DF8007868FFF71AFD00230093002300220421DE
:100E08007868FFF712FD00230093002300221321C6
:100E18007868FFF70AFD3A217868FFF779FD002323
:100E280000930023002205217868FFF7FEFC2921A2
:100E38007868FFF76DFD7B6801221A7000BF0837DC
:100E4800BD4680BD80B588B002AFF860084611463F
:100E58001A4603467B810B463B811346FB803B8940
:100E6800FB8215E07B89BB820BE0BA8AB98CFB8ACE
:100E7800009313460122F868FFF7FAFCBB8A013396
:100E8800BB82BA8AFB889A42EFD3FB8A0133FB8282
:100E9800FA8A3B8C9A42E5D300BF00BF1837BD469B
:100EA80080BD80B584B002AF78609F2300937F2314
:100EB800002200217868FFF74DFD7B6858687B6841
:100EC8001A334FF42042194601F05CF800BF083786
:100ED800BD4680BD80B586B002AFF86008461146B1
:100EE8001A4603467B810B463B811346FB807A8971
:100EF800F9883B89009313460122F868FFF7B8FC8C
:100F080000BF1037BD4680BD80B58AB002AFF8601B
:100F1800084611461A4603467B810B463B81134619
:100F2800FB710023FB767B893B8397F830305B08A5
:100F3800FB75FB7DDB08DBB21A46FB7D03F007037C
:100F4800002B01D0012300E0002313449AB297F844
:100F580030309BB212FB03F3BB82FB79203BFB7161
:100F68000023BB838FE097F830300C2B0BD1FA7934
:100F7800B98B4A4813465B0013449B0003440B4457
:100F88001B78FB7728E097F83030102B08D1FA79D6
:100F9800BB8B434912010A4413441B78FB771BE0BF
:100FA80097F83030182B0BD1FA79B98B3D48134696
:100FB8005B0013441B0103440B441B78FB770BE0D5
:100FC80097F83030202B64D1FA79BB8B36499201DF
:100FD8000A4413441B78FB770023BB774DE097F84E
:100FE8003430002B29D1FA7FBB7F42FA03F303F098
:100FF8000103002B09D07A89398D3B890093134668
:101008000122F868FFF734FC08E07A89B98D3B893A
:10101800009313460122F868FFF72AFC7B89013305
:101028007B817A893B8BD21AFB7D9A4222D13B8BFA
:101038007B813B8901333B8122E0FA7FBB7F42FA07
:1010480003F303F00103002B05D03B8D3A8979891E
:10105800F868FFF73FFF7B8901337B817A893B8BF7
:10106800D21AFB7D9A4205D13B8B7B813B890133A8
:101078003B8105E0BB7F0133BB77BB7F072BAED934
:10108800BB8B0133BB83BA8BBB8A9A42FFF46BAF2D
:1010980000E000BF2037BD4680BD00BF38590008BA
:1010A800AC5D00089C6300086C75000880B485B0CE
:1010B80000AF78600B46FB701346BB700123FB60E2
:1010C80004E0FA78FB6802FB03F3FB60BB785A1E66
:1010D800BA70002B14BF01230023DBB2002BF0D120
:1010E800FB6818461437BD465DF8047B704700005E
:1010F80090B58BB004AFF860084611461A4603460F
:101108007B810B463B811346FB800023BB7597F818
:1011180034305B087B750023FB755FE0FC8897F82B
:101128002820FB7DD31ADBB2013BDBB21A460A2129
:10113800F868FFF7BBFF0346B4FBF3F12C4BA3FBA6
:101148000123DA0813469B0013445B00CA1A1346AE
:101158003B75BB7D002B23D1FA7D97F82830013BE6
:101168009A421DDA3B7D002B18D1FB7D9AB27B7D1C
:101178009BB212FB03F39AB27B89134499B23A8962
:101188000023039397F8343002933B8E0193BB8D71
:1011980000932023F868FFF7B7FE1CE00123BB7516
:1011A800FB7D9AB27B7D9BB212FB03F39AB27B89DB
:1011B800134499B23B7D3033D8B23A890023039364
:1011C80097F8343002933B8E0193BB8D009303460E
:1011D800F868FFF799FEFB7D0133FB75FA7D97F8F8
:1011E80028309A429AD300BF00BF1C37BD4690BD35
:1011F800CDCCCCCC80B588B002AFF860084611469B
:101208001A4603467B810B463B811346FB8000232D
:101218003B610023FB8233E00023BB8229E03B696A
:101228005B007A6A13441B781BB21B021AB23B6933
:101238005B000133796A0B441B781BB213431BB262
:101248009AB2144B1A80134B19887A89BB8A1344B3
:1012580098B23A89FB8A13449BB200930346012251
:10126800F868FFF705FB3B6901333B61BB8A013333
:10127800BB82BA8A3B8C9A42D1D3FB8A0133FB8268
:10128800FA8AFB889A42C7D300BF00BF1837BD4609
:1012980080BD00BF2E00002080B483B000AF78600E
:1012A8007B680A4A93420BD1094B1B680133084AF1
:1012B8001360084B1B68084A1360064B00221A602B
:1012C80000BF0C37BD465DF8047B70471441012010
:1012D80030000020544001205840012080B483B0E1
:1012E80000AF78607B68064A934202D1054B002222
:1012F8001A7000BF0C37BD465DF8047B704700BF0D
:101308005C4001200000002080B483B000AF78600A
:101318000B467B80044B01221A7000BF0C37BD4678
:101328005DF8047B704700BF3400002080B586B0AC
:1013380004AF02F081FC00F085F800F053F900F0EA
:1013480021F900F0A1F900F0FDFA00F06FFB334835
:1013580002F058FD4FF420423149324803F0C8F9F1
:10136800314B1B681A68304B1B6822F008021A6060
:101378002E48FFF734FB4FF6FF730193A023009329
:101388008023002200212948FFF75CFD2748FFF74A
:1013980088FD00237B60264B1B680133244A1360B9
:1013A800244B1B689BB2102203924FF6FF720292E5
:1013B8004FF478420192042200928C2214211B4897
:1013C800FFF796FE1948FFF76CFD00BF1A4B1B7814
:1013D800002BFBD1184B01221A70184B1B78002BDD
:1013E800D9D0174B019380230093A023002200211A
:1013F8000E48FFF7FFFE114B00221A704FF42042EF
:101408000F49084803F074F9074B1B681A68064B24
:101418001B6822F008021A60BDE700BF14410120D2
:1014280052A000205C410120A441012038A00020E6
:1014380054400120584001200000002034000020C2
:101448003800002080B594B000AF07F120033022A7
:1014580000211846FEF700FF07F10C0300221A606E
:101468005A609A60DA601A610023BB602D4B1B6CCE
:101478002C4A43F0805313642A4B1B6C03F08053AF
:10148800BB60BB6800237B60274B1B68264A43F47C
:1014980080431360244B1B6803F480437B607B68A4
:1014A80002233B620123FB6210233B630223BB63DD
:1014B8000023FB6308233B64A8237B640223BB64EB
:1014C8000423FB6407F12003184601F093F8034650
:1014D800002B14BF01230023DBB2002B01D000F046
:1014E80025F80F23FB6002233B6100237B614FF447
:1014F800A053BB614FF48053FB6107F10C03052136
:10150800184601F0EFFA0346002B14BF012300230D
:10151800DBB2002B01D000F009F800BF5037BD4600
:1015280080BD00BF003802400070004080B400AFAA
:1015380072B600BF00BFFDE780B586B006AF0B4BA3
:1015480004934FF480630393002302934FF4805372
:1015580001934FF4006300930023002204490548D7
:10156800FFF7F4F800BFBD4680BD00BF5C40012016
:101578000008024038A0002080B500AFFFF7DCFF6C
:1015880080BD000080B582B000AF00237B60144BA3
:101598001B6B134A43F480031363114B1B6B03F457
:1015A80080037B607B68002200213A2002F00DFB5B
:1015B8003A2002F026FB002200213B2002F005FB26
:1015C8003B2002F01EFB00220021462002F0FDFA1B
:1015D800462002F016FB00BF0837BD4680BD00BF9D
:1015E8000038024080B588B000AF07F10C03002234
:1015F8001A605A609A60DA601A610023BB60204B57
:101608001B6B1F4A43F0800313631D4B1B6B03F0D6
:101618008003BB60BB6800237B60194B1B6B184AB7
:1016280043F001031363164B1B6B03F001037B604C
:101638007B6800233B60124B1B6B114A43F0040389
:1016480013630F4B1B6B03F004033B603B680022E2
:101658004FF4E0510B4801F0C1FD4FF4E053FB603B
:1016680001233B6101237B610323BB6107F10C0369
:101678001946044801F016FC00BF2037BD4680BD5E
:10168800003802400008024080B500AF174B184AE6
:101698001A60164B4FF482725A60144B00229A60FB
:1016A800124B0022DA60114B00221A610F4B002204
:1016B8005A610E4B4FF480229A610C4B0022DA617A
:1016C8000A4B00221A62094B00225A62074B002279
:1016D8009A62064B0A22DA62044800F087FA034647
:1016E800002B01D0FFF722FF00BF80BD5C40012026
:1016F8000030014080B58AB000AF786007F114036C
:1017080000221A605A609A60DA601A617B681B6866
:10171800344A934261D100233B61334B5B6C324ABC
:1017280043F480535364304B5B6C03F480533B6148
:101738003B690023FB602C4B1B6B2B4A43F00103D6
:101748001363294B1B6B03F00103FB60FB68B02399
:101758007B610223BB610023FB6103233B620523FA
:101768007B6207F114031946204801F09BFB204BCC
:10177800204A1A601E4B4FF0C0625A601C4B402230
:101788009A601B4B0022DA60194B4FF480621A6191
:10179800174B00225A61164B00229A61144B002203
:1017A800DA61134B00221A62114B00225A62104868
:1017B80001F02EFD0346002B01D0FFF7B7FE7B6832
:1017C8000B4A9A640A4A7B6893630022002123200B
:1017D80002F0FBF9232002F014FA00BF2837BD46B7
:1017E80080BD00BF003001400038024000000240C8
:1017F800B44001205864024080B483B000AF002395
:101808007B60104B5B6C0F4A43F4804353640D4B71
:101818005B6C03F480437B607B6800233B60094B6F
:101828001B6C084A43F080531364064B1B6C03F08F
:1018380080533B603B6800BF0C37BD465DF8047BB6
:10184800704700BF0038024080B400AF00BFFDE71A
:1018580080B400AF00BFFDE780B400AF00BFFDE774
:1018680080B400AF00BFFDE780B400AF00BFFDE764
:1018780080B400AF00BFBD465DF8047B704780B4FC
:1018880000AF00BFBD465DF8047B704780B400AF71
:1018980000BFBD465DF8047B704780B500AF02F01D
:1018A8001DFA00BF80BD000080B500AF024802F0FD
:1018B80019FB00BF80BD00BF1441012080B500AFF7
:1018C800024800F011FC00BF80BD00BF5C40012051
:1018D80080B500AF024802F069FF00BF80BD00BFBD
:1018E8005C41012080B500AF024801F029FE00BF2D
:1018F80080BD00BFA441012080B500AF024801F0BF
:101908001FFE00BF80BD00BFB440012080B500AFFE
:10191800024801F015FE00BF80BD00BF044201204F
:1019280080B400AF064BD3F88830054A43F47003FF
:10193800C2F8883000BFBD465DF8047B704700BF21
:1019480000ED00E080B586B000AF07F10803002283
:101958001A605A609A60DA603B4600221A605A6040
:101968001E4B4FF080421A601C4B42F2CF025A6065
:101978001A4B00229A60194B42F20F72DA60174B29
:1019880000221A61154B00229A61144802F0EAF904
:101998000346002B01D0FFF7C9FD4FF48053BB600D
:1019A80007F1080319460D4802F08CFB0346002B8B
:1019B80001D0FFF7BBFD00233B6000237B603B4663
:1019C8001946064802F0B4FD0346002B01D0FFF784
:1019D800ADFD00BF1837BD4680BD00BF14410120D2
:1019E80080B584B000AF78607B681B68B3F1804F26
:1019F80015D10023FB600C4B1B6C0B4A43F0010311
:101A08001364094B1B6C03F00103FB60FB680022A5
:101A180000211C2002F0D9F81C2002F0F2F800BFC7
:101A28001037BD4680BD00BF0038024080B500AF0A
:101A3800104B114A1A600F4B104A5A600D4B002286
:101A48009A600C4B0022DA600A4B00221A61094B9B
:101A58000C225A61074B00229A61064B0022DA6178
:101A6800044802F0F5FD0346002B01D0FFF75EFDA8
:101A780000BF80BD5C41012000100140200B200008
:101A880080B58AB000AF786007F1140300221A60AD
:101A98005A609A60DA601A617B681B684C4A934204
:101AA80040F0918000233B614A4B5B6C494A43F00C
:101AB80010035364474B5B6C03F010033B613B69B5
:101AC8000023FB60434B1B6B424A43F00103136343
:101AD800404B1B6B03F00103FB60FB684FF4C063D2
:101AE8007B610223BB610023FB6103233B62072365
:101AF8007B6207F114031946374801F0D3F9374BD5
:101B0800374A1A60354B4FF000625A60334B002257
:101B18009A60324B0022DA60304B4FF480621A61CF
:101B28002E4B00225A612D4B00229A612B4B00222A
:101B3800DA612A4B00221A62284B00225A6227488F
:101B480001F066FB0346002B01D0FFF7EFFC7B6832
:101B5800224ADA63214A7B689363224B224A1A603D
:101B6800204B4FF000625A601E4B40229A601D4B7A
:101B78000022DA601B4B4FF480621A61194B002275
:101B88005A61184B00229A61164B0022DA61154BF4
:101B980000221A62134B00225A62124801F038FBE5
:101BA8000346002B01D0FFF7C1FC7B680D4A9A63FE
:101BB8000C4A7B68936300220021252002F005F877
:101BC800252002F01EF800BF2837BD4680BD00BFA3
:101BD800001001400038024000000240A4410120EA
:101BE8004064024004420120B864024080B582B0DB
:101BF80000AF78607B68002B01D101237BE07B6814
:101C08005B6A002B08D17B685B68B3F5827F09D0DB
:101C18007B680022DA6105E07B6800221A617B6834
:101C280000225A617B6800229A627B6893F85130DF
:101C3800DBB2002B06D17B68002283F8502078683D
:101C4800FFF758FD7B68022283F851207B681B68E8
:101C58001A687B681B6822F040021A607B685B6820
:101C680003F482727B689B6803F404431A437B681D
:101C7800DB6803F400631A437B681B6903F0020303
:101C88001A437B685B6903F001031A437B689B690D
:101C980003F400731A437B68DB6903F038031A43C3
:101CA8007B681B6A03F0800342EA03017B689B6A36
:101CB80003F400527B681B680A431A607B689B69BF
:101CC8001B0C03F004017B685B6A03F010027B685D
:101CD8001B680A435A607B681B68DA697B681B6863
:101CE80022F40062DA617B6800225A657B6801226F
:101CF80083F85120002318460837BD4680BD80B5BB
:101D080088B000AFF860B9603B601346FB800023E1
:101D1800FB77FB6893F85030012B01D102232DE1AA
:101D2800FB68012283F8502001F0ECFFB861FB88C2
:101D3800FB82FB6893F85130DBB2012B02D00223FF
:101D4800FB7716E1BB68002B02D0FB88002B02D181
:101D58000123FB770DE1FB68032283F85120FB6820
:101D680000225A65FB68BA681A63FB68FA889A8683
:101D7800FB68FA88DA86FB6800229A63FB6800220F
:101D88009A87FB680022DA87FB6800225A64FB689E
:101D980000221A64FB689B68B3F5004F0FD1FB68FB
:101DA8001B681A68FB681B6822F040021A60FB680F
:101DB8001B681A68FB681B6842F480421A60FB685B
:101DC8001B681B6803F04003402B07D0FB681B68A7
:101DD8001A68FB681B6842F040021A60FB68DB68FF
:101DE800B3F5006F4FD1FB685B68002B02D0FB8A0C
:101DF800012B42D1FB681B6B1A88FB681B68DA60F1
:101E0800FB681B6B9A1CFB681A63FB68DB8E9BB232
:101E1800013B9AB2FB68DA862FE0FB681B689B6877
:101E280003F00203022B12D1FB681B6B1A88FB68B4
:101E38001B68DA60FB681B6B9A1CFB681A63FB68FB
:101E4800DB8E9BB2013B9AB2FB68DA8615E001F0A3
:101E580059FF0246BB69D31A3A689A4203D83B68CD
:101E6800B3F1FF3F02D13B68002B06D10323FB7778
:101E7800FB68012283F851207BE0FB68DB8E9BB274
:101E8800002BCAD150E0FB685B68002B02D0FB8AAC
:101E9800012B44D1FB681A6BFB681B680C33127862
:101EA8001A70FB681B6B5A1CFB681A63FB68DB8E95
:101EB8009BB2013B9AB2FB68DA8630E0FB681B688C
:101EC8009B6803F00203022B13D1FB681A6BFB68B3
:101ED8001B680C3312781A70FB681B6B5A1CFB6862
:101EE8001A63FB68DB8E9BB2013B9AB2FB68DA8609
:101EF80015E001F007FF0246BB69D31A3A689A4217
:101F080003D83B68B3F1FF3F02D13B68002B06D1F1
:101F18000323FB77FB68012283F8512029E0FB6843
:101F2800DB8E9BB2002BC9D1BA693968F86800F01A
:101F38000DFB0346002B02D0FB6820225A65FB6884
:101F48009B68002B0AD100233B61FB681B68DB6898
:101F58003B61FB681B689B683B613B69FB685B6D89
:101F6800002B02D00123FB7703E0FB68012283F8F2
:101F78005120FB68002283F85020FB7F1846203749
:101F8800BD4680BD80B586B000AFF860B960134625
:101F9800FB800023FB75FB6893F85030012B01D1BF
:101FA800022397E0FB68012283F85020FB6893F82E
:101FB8005130DBB2012B02D00223FB7585E0BB68F0
:101FC800002B02D0FB88002B02D10123FB757CE09B
:101FD800FB68032283F85120FB6800225A65FB68DE
:101FE800BA681A63FB68FA889A86FB68FA88DA8600
:101FF800FB6800229A63FB6800225A64FB6800228F
:102008001A64FB6800229A87FB680022DA87FB685B
:102018009B68B3F5004F0FD1FB681B681A68FB6813
:102028001B6822F040021A60FB681B681A68FB688C
:102038001B6842F480421A60FB689B6C274A1A644A
:10204800FB689B6C264ADA63FB689B6C254ADA645A
:10205800FB689B6C00221A65FB68986CFB681B6B1D
:102068001946FB681B680C331A46FB68DB8E9BB26B
:1020780001F07CF90346002B08D0FB685B6D43F048
:102088001002FB685A650123FB751EE0FB681B689C
:102098001B6803F04003402B07D0FB681B681A68D5
:1020A800FB681B6842F040021A60FB681B685A68AC
:1020B800FB681B6842F020025A60FB681B685A687C
:1020C800FB681B6842F002025A60FB68002283F832
:1020D8005020FB7D18461837BD4680BDC123000837
:1020E80019230008DD23000880B588B000AF7860A8
:1020F8007B681B685B68FB617B681B689B68BB61CE
:10210800BB699B0903F00103002B0FD1BB6903F0E6
:102118000103002B0AD0FB699B0903F00103002B84
:1021280004D07B681B6C78689847D7E0BB695B086C
:1021380003F00103002B0AD0FB69DB0903F001035C
:10214800002B04D07B685B6C78689847C6E0BB6955
:102158005B0903F00103002B0CD1BB699B0903F059
:102168000103002B06D1BB691B0A03F00103002BF6
:1021780000F0B480FB695B0903F00103002B00F059
:10218800AD80BB699B0903F00103002B23D07B685A
:1021980093F85130DBB2032B11D07B685B6D43F0B1
:1021A80004027B685A6500237B617B681B68DB68D7
:1021B8007B617B681B689B687B617B690BE0002304
:1021C8003B617B681B68DB683B617B681B689B68BD
:1021D8003B613B6982E0BB695B0903F00103002BAB
:1021E80014D07B685B6D43F001027B685A6500235D
:1021F800FB607B681B689B68FB607B681B681A68D0
:102208007B681B6822F040021A60FB68BB691B0AE6
:1022180003F00103002B0CD07B685B6D43F00802D0
:102228007B685A650023BB607B681B689B68BB6042
:10223800BB687B685B6D002B4FD07B681B685A6856
:102248007B681B6822F0E0025A607B68012283F8F1
:102258005120FB6903F00203002B04D1FB6903F052
:102268000103002B34D07B681B685A687B681B68A5
:1022780022F003025A607B68DB6C002B11D07B686C
:10228800DB6C184A1A657B68DB6C184601F036F976
:102298000346002B05D07B685B6D43F040027B68EA
:1022A8005A657B689B6C002B16D07B689B6C0D4A2B
:1022B8001A657B689B6C184601F020F90346002BD1
:1022C8000AD07B685B6D43F040027B685A6503E087
:1022D800786800F013F800E000BF00BF2037BD4663
:1022E80080BD00BF1D24000880B483B000AF7860B3
:1022F80000BF0C37BD465DF8047B704780B483B0DF
:1023080000AF786000BF0C37BD465DF8047B7047AE
:1023180080B586B000AF78607B689B6B7B6101F00D
:10232800F1FC38617B681B681B6803F48073B3F5A4
:10233800807F3BD07B691B685A687B691B6822F0E9
:1023480020025A607B691B685A687B691B6822F007
:1023580002025A603A696421786900F0F7F8034686
:10236800002B05D07B695B6D43F020027B695A65C1
:102378007B699B68002B0AD10023FB607B691B6883
:10238800DB68FB607B691B689B68FB60FB687B699B
:102398000022DA867B69012283F851207B695B6D14
:1023A800002B03D07869FFF7A9FF02E07869FEF7F0
:1023B80095FF1837BD4680BD80B584B000AF786002
:1023C8007B689B6BFB60F868FFF78EFF00BF1037D8
:1023D800BD4680BD80B584B000AF78607B689B6BDC
:1023E800FB60FB681B685A68FB681B6822F00302E5
:1023F8005A60FB685B6D43F01002FB685A65FB6826
:10240800012283F85120F868FFF778FF00BF1037E2
:10241800BD4680BD80B584B000AF78607B689B6B9B
:10242800FB60FB680022DA87FB680022DA86F8681E
:10243800FFF764FF00BF1037BD4680BD80B588B088
:1024480000AFF860B9603B601346FB7101F05AFCBD
:102458000246BB6A9B1A3A681344FB6101F052FCBE
:10246800B861394B1B685B011B0DFA6902FB03F36A
:102478007B6154E03B68B3F1FF3F50D001F042FC70
:102488000246BB69D31AFA699A4202D9FB69002B42
:102498003DD1FB681B685A68FB681B6822F0E002A4
:1024A8005A60FB685B68B3F5827F11D1FB689B6853
:1024B800B3F5004F04D0FB689B68B3F5806F07D174
:1024C800FB681B681A68FB681B6822F040021A60E8
:1024D800FB689B6AB3F5005F0FD1FB681B681A683D
:1024E800FB681B6822F400521A60FB681B681A68B4
:1024F800FB681B6842F400521A60FB68012283F8EB
:102508005120FB68002283F85020032317E07B69E1
:10251800002B01D10023FB617B69013B7B61FB68D8
:102528001B689A68BB681340BA689A420CBF0123BB
:102538000023DBB21A46FB799A429BD10023184646
:102548002037BD4680BD00BF0400002080B588B09C
:1025580002AFF860B9607A607B680093BB680122BB
:102568000221F868FFF76AFF0346002B07D0FB68D3
:102578005B6D43F02002FB685A65032332E01B4B76
:102588001B681B4AA2FB03235B0D4FF47A7202FB04
:1025980003F37B61FB685B68B3F5827F12D17B68CC
:1025A8000093BB6800228021F868FFF747FF0346C5
:1025B800002B16D0FB685B6D43F02002FB685A6560
:1025C80003230FE07B69002B0AD07B69013B7B6109
:1025D800FB681B689B6803F08003802BF2D000E047
:1025E80000BF002318461837BD4680BD04000020F0
:1025F800819F5E1680B586B000AF78607B68002B3F
:1026080001D1012367E27B681B6803F00103002BFB
:1026180075D0884B9B6803F00C03042B0CD0854BBA
:102628009B6803F00C03082B12D1824B5B6803F400
:102638008003B3F5800F0BD17E4B1B6803F4003386
:10264800002B5BD07B685B68002B57D1012342E2EB
:102658007B685B68B3F5803F06D1764B1B68754A8B
:1026680043F4803313601DE07B685B68B3F5A02FEB
:102678000CD1704B1B686F4A43F4802313606D4B79
:102688001B686C4A43F4803313600BE0694B1B688A
:10269800684A23F480331360664B1B68654A23F449
:1026A800802313607B685B68002B13D001F02AFB42
:1026B800386108E001F026FB02463B69D31A642B17
:1026C80001D9032307E25B4B1B6803F40033002B9B
:1026D800F0D014E001F016FB386108E001F012FBBD
:1026E80002463B69D31A642B01D90323F3E1514B0A
:1026F8001B6803F40033002BF0D100E000BF7B68B7
:102708001B6803F00203002B63D04A4B9B6803F05D
:102718000C03002B0BD0474B9B6803F00C03082BD2
:102728001CD1444B5B6803F48003002B16D1414B4A
:102738001B6803F00203002B05D07B68DB68012BC4
:1027480001D00123C7E13B4B1B6823F0F8027B68EB
:102758001B69DB00374913430B603AE07B68DB6891
:10276800002B20D0344B01221A6001F0CBFA3861DB
:1027780008E001F0C7FA02463B69D31A022B01D9D7
:102788000323A8E12B4B1B6803F00203002BF0D0B6
:10279800284B1B6823F0F8027B681B69DB0025497E
:1027A80013430B6015E0244B00221A6001F0AAFACB
:1027B800386108E001F0A6FA02463B69D31A022BF9
:1027C80001D9032387E11B4B1B6803F00203002B8D
:1027D800F0D17B681B6803F00803002B36D07B68B8
:1027E8005B69002B16D0154B01221A6001F08AFA9A
:1027F800386108E001F086FA02463B69D31A022BD9
:1028080001D9032367E10B4B5B6F03F00203002B35
:10281800F0D01BE0094B00221A6001F073FA38610E
:102828000EE001F06FFA02463B69D31A022B07D972
:10283800032350E10038024000004742800E47421F
:10284800884B5B6F03F00203002BEAD17B681B689F
:1028580003F00403002B00F097800023FB75814BE5
:102868001B6C03F08053002B0FD10023BB607D4B02
:102878001B6C7C4A43F0805313647A4B1B6C03F047
:102888008053BB60BB680123FB75774B1B6803F45F
:102898008073002B18D1744B1B68734A43F4807300
:1028A800136001F02FFA386108E001F02BFA0246B4
:1028B8003B69D31A022B01D903230CE16A4B1B682D
:1028C80003F48073002BF0D07B689B68012B06D142
:1028D800644B1B6F634A43F0010313671CE07B687A
:1028E8009B68052B0CD15F4B1B6F5E4A43F00403BA
:1028F80013675C4B1B6F5B4A43F0010313670BE0E4
:10290800584B1B6F574A23F001031367554B1B6F36
:10291800544A23F0040313677B689B68002B15D087
:1029280001F0F0F938610AE001F0ECF902463B6980
:10293800D31A41F28832934201D90323CBE0494BA1
:102948001B6F03F00203002BEED014E001F0DAF95C
:1029580038610AE001F0D6F902463B69D31A41F220
:102968008832934201D90323B5E03E4B1B6F03F035
:102978000203002BEED1FB7D012B05D1394B1B6CDB
:10298800384A23F0805313647B689B69002B00F05E
:10299800A180344B9B6803F00C03082B5CD07B6848
:1029A8009B69022B41D1314B00221A6001F0AAF930
:1029B800386108E001F0A6F902463B69D31A022BF8
:1029C80001D9032387E0274B1B6803F00073002B12
:1029D800F0D17B68DA697B681B6A1A437B685B6A9B
:1029E8009B011A437B689B6A5B08013B1B041A43E3
:1029F8007B68DB6A1B061B4913434B601B4B012298
:102A08001A6001F07FF9386108E001F07BF90246AD
:102A18003B69D31A022B01D903235CE0114B1B68D5
:102A280003F00073002BF0D054E0104B00221A6022
:102A380001F068F9386108E001F064F902463B6981
:102A4800D31A022B01D9032345E0064B1B6803F078
:102A58000073002BF0D13DE07B689B69012B07D107
:102A6800012338E00038024000700040600047420F
:102A78001B4B5B68FB607B689B69012B28D0FB685C
:102A880003F480027B68DB699A4221D1FB6803F07A
:102A98003F027B681B6A9A421AD1FA6847F6C073EC
:102AA80013407A68526A9201934211D1FB6803F489
:102AB80040327B689B6A5B08013B1B049A4207D142
:102AC800FB6803F070627B68DB6A1B069A4201D0E0
:102AD800012300E0002318461837BD4680BD00BF1B
:102AE8000038024080B584B000AF786039607B68F8
:102AF800002B01D10123CCE0684B1B6803F00703CE
:102B08003A689A420CD9654B3A68D2B21A70634B4C
:102B18001B6803F007033A689A4201D00123B8E022
:102B28007B681B6803F00203002B20D07B681B68BE
:102B380003F00403002B05D0594B9B68584A43F413
:102B4800E05393607B681B6803F00803002B05D0F3
:102B5800534B9B68524A43F460439360504B9B68C5
:102B680023F0F0027B689B684D4913438B607B68B8
:102B78001B6803F00103002B44D07B685B68012BC2
:102B880007D1474B1B6803F40033002B19D10123ED
:102B98007FE07B685B68022B03D07B685B68032B54
:102BA80007D13F4B1B6803F00073002B09D10123A9
:102BB8006FE03B4B1B6803F00203002B01D101239C
:102BC80067E0374B9B6823F003027B685B683449F6
:102BD80013438B6001F096F8F8600AE001F092F870
:102BE8000246FB68D31A41F28832934201D9032383
:102BF8004FE02B4B9B6803F00C027B685B689B00E3
:102C08009A42EBD1254B1B6803F007033A689A42B6
:102C18000CD2224B3A68D2B21A70204B1B6803F0D0
:102C280007033A689A4201D0012332E07B681B68A7
:102C380003F00403002B08D0194B9B6823F4E052DF
:102C48007B68DB68164913438B607B681B6803F05D
:102C58000803002B09D0124B9B6823F460427B6861
:102C68001B69DB000E4913438B6000F021F8024614
:102C78000B4B9B681B0903F00F030A49CB5C22FA34
:102C880003F3094A1360094B1B68184600F0F6FF66
:102C9800002318461037BD4680BD00BF003C0240E7
:102CA800003802402C8D0008040000200800002095
:102CB8002DE9B04F90B000AF00237B630023FB6386
:102CC80000233B630023BB63594B9B6803F00C0351
:102CD800082B0DD0082B00F2A180002B02D0042B6A
:102CE80003D09BE0534BBB639BE0534BBB6398E023
:102CF8004F4B5B6803F03F037B634D4B5B6803F40A
:102D08008003002B28D04A4B5B689B0900223B625A
:102D18007A623B6AC3F308000021474B03FB01F2C8
:102D2800002300FB03F31344434AA0FB0212FA6298
:102D38000A46BA62FA6A1344FB627B6B0022BB61E3
:102D4800FA61D7E90623D7E90A01FDF7D7FA02465F
:102D58000B461346FB6353E0354B5B689B09002227
:102D68003B617A613B69C3F3080A4FF0000B524696
:102D78005B464FF000004FF00001590141EAD26173
:102D8800500102460B46B2EB0A0863EB0B094FF001
:102D980000024FF000034FEA891343EA98634FEAB1
:102DA8008812B2EB080463EB09054FF000024FF0FC
:102DB8000003EB0043EA5473E20014461D4614EB8B
:102DC8000A033B6045EB0B037B604FF000024FF0BA
:102DD8000003D7E9004529468B02214643EA91536F
:102DE80021468A02104619467B6B0022BB60FA60B6
:102DF800D7E90223FDF782FA02460B461346FB6326
:102E08000B4B5B681B0C03F0030301335B003B6354
:102E1800FA6B3B6BB2FBF3F3BB6302E0054BBB639E
:102E280000BFBB6B18464037BD46BDE8B08F00BF3A
:102E3800003802400024F40040787D0180B400AFDF
:102E4800034B1B681846BD465DF8047B704700BFFE
:102E58000400002080B500AFFFF7F0FF0246054BE5
:102E68009B689B0A03F007030349CB5C22FA03F330
:102E7800184680BD003802403C8D000880B500AF80
:102E8800FFF7DCFF0246054B9B685B0B03F007036B
:102E98000349CB5C22FA03F3184680BD0038024090
:102EA8003C8D000880B489B000AF78603960002399
:102EB8007B6100233B610023BB610023FB616BE165
:102EC8000122FB6902FA03F37B613B681B687A699C
:102ED80013403B613A697B699A4240F05A813B68EA
:102EE8005B6803F00303012B05D03B685B6803F0C4
:102EF8000303022B30D17B689B68BB61FB695B00D5
:102F0800032202FA03F3DB43BA691340BB613B684F
:102F1800DA68FB695B0002FA03F3BA691343BB6121
:102F28007B68BA699A607B685B68BB610122FB6950
:102F380002FA03F3DB43BA691340BB613B685B6881
:102F48001B0903F00102FB6902FA03F3BA69134390
:102F5800BB617B68BA695A603B685B6803F003032E
:102F6800032B17D07B68DB68BB61FB695B0003221E
:102F780002FA03F3DB43BA691340BB613B689A6802
:102F8800FB695B0002FA03F3BA691343BB617B6810
:102F9800BA69DA603B685B6803F00303022B23D14C
:102FA800FB69DA087B68083253F82230BB61FB6999
:102FB80003F007039B000F2202FA03F3DB43BA690D
:102FC8001340BB613B681A69FB6903F007039B0068
:102FD80002FA03F3BA691343BB61FB69DA087B6839
:102FE8000832B96943F822107B681B68BB61FB692A
:102FF8005B00032202FA03F3DB43BA691340BB61A7
:103008003B685B6803F00302FB695B0002FA03F3A9
:10301800BA691343BB617B68BA691A603B685B682D
:1030280003F44033002B00F0B4800023FB60604BB6
:103038005B6C5F4A43F4804353645D4B5B6C03F401
:103048008043FB60FB685B4AFB699B08023352F8CC
:103058002330BB61FB6903F003039B000F2202FAD4
:1030680003F3DB43BA691340BB617B68524A93425E
:103078002BD07B68514A934225D07B68504A9342B3
:103088001FD07B684F4A934219D07B684E4A9342BF
:1030980013D07B684D4A93420DD07B684C4A9342CB
:1030A80007D07B684B4A934201D107230EE00823DF
:1030B8000CE006230AE0052308E0042306E00323C6
:1030C80004E0022302E0012300E00023FA6902F091
:1030D800030292009340BA691343BB613549FB6907
:1030E8009B080233BA6941F823203B4B9B68BB61BC
:1030F8003B69DB43BA691340BB613B685B6803F417
:103108008013002B03D0BA693B691343BB61324A71
:10311800BB699360304BDB68BB613B69DB43BA69D1
:103128001340BB613B685B6803F40013002B03D0BA
:10313800BA693B691343BB61274ABB69D360264B15
:103148005B68BB613B69DB43BA691340BB613B68A1
:103158005B6803F40033002B03D0BA693B6913435F
:10316800BB611D4ABB6953601B4B1B68BB613B6954
:10317800DB43BA691340BB613B685B6803F4803387
:10318800002B03D0BA693B691343BB61124ABB6980
:103198001360FB690133FB61FB690F2B7FF690AE6F
:1031A80000BF00BF2437BD465DF8047B704700BFF1
:1031B800003802400038014000000240000402408C
:1031C80000080240000C02400010024000140240B7
:1031D80000180240001C0240003C014080B483B04B
:1031E80000AF78600B467B8013467B707B78002BA2
:1031F80003D07A887B689A6103E07B881A047B682D
:103208009A6100BF0C37BD465DF8047B704700002B
:1032180080B586B000AF786000237B6100F072FD56
:1032280038617B68002B01D1012399E07B68022279
:1032380083F835207B68002283F834207B681B687C
:103248001A687B681B6822F001021A600FE000F020
:1032580059FD02463B69D31A052B08D97B68202201
:103268005A657B68032283F83520032378E07B685E
:103278001B681B6803F00103002BE8D17B681B68FF
:103288001B687B617A69384B13407B617B685A689D
:103298007B689B681A437B68DB681A437B681B69F9
:1032A8001A437B685B691A437B689B691A437B688E
:1032B800DB691A437B681B6A13437A6913437B6192
:1032C8007B685B6A042B07D17B68DA6A7B681B6BB7
:1032D80013437A6913437B617B681B687A691A60B8
:1032E8007B681B685B697B617B6923F007037B61F3
:1032F8007B685B6A7A6913437B617B685B6A042B32
:1033080017D17B689B6A7A6913437B617B68DB6AA8
:10331800002B0ED0786800F001FB0346002B08D084
:103328007B6840225A657B68012283F83520012397
:1033380016E07B681B687A695A61786800F0B8FA09
:103348000346FB607B68DB6D3F229A40FB689A600E
:103358007B6800225A657B68012283F835200023A8
:1033680018461837BD4680BD3F8010F080B586B03E
:1033780000AFF860B9607A603B600023FB75FB68BA
:103388009B6D3B61FB6893F83430012B01D102231C
:1033980040E0FB68012283F83420FB6893F835305D
:1033A800DBB2012B2FD1FB68022283F83520FB68A2
:1033B80000225A653B687A68B968F86800F04AFAEA
:1033C800FB68DB6D3F229A403B699A60FB681B688B
:1033D8001A68FB681B6842F016021A60FB681B6CCF
:1033E800002B07D0FB681B681A68FB681B6842F053
:1033F80008021A60FB681B681A68FB681B6842F0C1
:1034080001021A6005E0FB68002283F834200223D9
:10341800FB75FB7D18461837BD4680BD80B584B066
:1034280000AF78607B689B6DFB6000F06BFCB86058
:103438007B6893F83530DBB2022B08D07B6880229A
:103448005A657B68002283F83420012352E07B68A8
:103458001B681A687B681B6822F016021A607B6872
:103468001B685A697B681B6822F080025A617B6876
:103478001B6C002B03D17B689B6C002B07D07B68EF
:103488001B681A687B681B6822F008021A607B6850
:103498001B681A687B681B6822F001021A6013E037
:1034A80000F030FC0246BB68D31A052B0CD97B68A8
:1034B80020225A657B68032283F835207B68002226
:1034C80083F83420032315E07B681B681B6803F02E
:1034D8000103002BE4D17B68DB6D3F229A40FB6837
:1034E8009A607B68012283F835207B68002283F884
:1034F8003420002318461037BD4680BD80B483B001
:1035080000AF78607B6893F83530DBB2022B04D0CB
:103518007B6880225A6501230CE07B68052283F8CA
:1035280035207B681B681A687B681B6822F00102DB
:103538001A60002318460C37BD465DF8047B7047B7
:1035480080B586B000AF78600023BB608E4B1B68E7
:103558008E4AA2FB03239B0A7B617B689B6D3B61C0
:103568003B691B68FB607B68DB6D08229A40FB683F
:103578001340002B1AD07B681B681B6803F00403F8
:10358800002B13D07B681B681A687B681B6822F0C5
:1035980004021A607B68DB6D08229A403B699A60D6
:1035A8007B685B6D43F001027B685A657B68DB6D65
:1035B80001229A40FB681340002B12D07B681B68DD
:1035C8005B6903F08003002B0BD07B68DB6D012265
:1035D8009A403B699A607B685B6D43F002027B68A6
:1035E8005A657B68DB6D04229A40FB681340002B08
:1035F80012D07B681B681B6803F00203002B0BD0FA
:103608007B68DB6D04229A403B699A607B685B6D3E
:1036180043F004027B685A657B68DB6D10229A4090
:10362800FB681340002B43D07B681B681B6803F0C2
:103638000803002B3CD07B68DB6D10229A403B6965
:103648009A607B681B681B6803F48023002B18D0E2
:103658007B681B681B6803F40023002B08D17B6878
:103668001B6C002B24D07B681B6C786898471FE084
:103678007B689B6C002B1BD07B689B6C7868984799
:1036880016E07B681B681B6803F48073002B07D166
:103698007B681B681A687B681B6822F008021A603E
:1036A8007B681B6C002B03D07B681B6C7868984781
:1036B8007B68DB6D20229A40FB681340002B00F0EA
:1036C8008F807B681B681B6803F01003002B00F0D9
:1036D80087807B68DB6D20229A403B699A607B6813
:1036E80093F83530DBB2052B36D17B681B681A6836
:1036F8007B681B6822F016021A607B681B685A698F
:103708007B681B6822F080025A617B681B6C002B67
:1037180003D17B689B6C002B07D07B681B681A68F9
:103728007B681B6822F008021A607B68DB6D3F2209
:103738009A403B699A607B68012283F835207B6850
:10374800002283F834207B681B6D002B7ED07B68B9
:103758001B6D7868984779E07B681B681B6803F4E1
:103768008023002B1DD07B681B681B6803F4002393
:10377800002B0DD17B685B6C002B31D07B685B6CB8
:10378800786898472CE000BF04000020B5814E1BE4
:103798007B68DB6B002B23D07B68DB6B78689847F2
:1037A8001EE07B681B681B6803F48073002B0FD135
:1037B8007B681B681A687B681B6822F010021A6015
:1037C8007B68012283F835207B68002283F8342047
:1037D8007B68DB6B002B03D07B68DB6B78689847D2
:1037E8007B685B6D002B32D07B685B6D03F0010357
:1037F800002B22D07B68052283F835207B681B6864
:103808001A687B681B6822F001021A60BB680133E2
:10381800BB607A699A4207D37B681B681B6803F010
:103828000103002BF2D100E000BF7B68012283F87E
:1038380035207B68002283F834207B68DB6C002B02
:1038480005D07B68DB6C7868984700E000BF1837C4
:10385800BD4680BD80B485B000AFF860B9607A60BD
:103868003B60FB681B681A68FB681B6822F48022AF
:103878001A60FB681B683A685A60FB689B68402BB3
:1038880008D1FB681B687A689A60FB681B68BA688D
:10389800DA6007E0FB681B68BA689A60FB681B6817
:1038A8007A68DA6000BF1437BD465DF8047B70475C
:1038B80080B485B000AF78607B681B68DBB2103BD2
:1038C800144AA2FB03231B09FB60134AFB68134439
:1038D8001B781A467B68DA65FB68032B09D97B6875
:1038E8001B6823F47F7323F003031A1D7B689A6512
:1038F80007E07B681B6823F47F7323F003037A686F
:1039080093657B689B6D18461437BD465DF8047B4C
:10391800704700BFABAAAAAA448D000880B485B03E
:1039280000AF78600023FB737B689B6ABB607B6891
:103938009B69002B1FD1BB68032B56D801A252F8F4
:1039480023F000BF5D3900086F3900085D390008B1
:10395800F33900087B68DB6A03F08073002B46D0DC
:103968000123FB7343E07B68DB6AB3F1C07F40D17E
:103978000123FB733DE07B689B69B3F5005F21D1B0
:10398800BB68032B37D801A252F823F0A5390008E9
:10399800AB390008A5390008BD3900080123FB73BD
:1039A80030E07B68DB6A03F08073002B25D00123AD
:1039B800FB7322E07B68DB6AB3F1C07F1FD1012370
:1039C800FB731CE0BB68022B03D9BB68032B03D035
:1039D80018E00123FB7315E07B68DB6A03F0807352
:1039E800002B0ED00123FB730BE000BF0AE000BFE1
:1039F80008E000BF06E000BF04E000BF02E000BF2F
:103A080000E000BFFB7B18461437BD465DF8047B19
:103A1800704700BF80B485B000AF78607B6803F062
:103A28000703FB600C4BDB68BB60BA684FF6FF030B
:103A38001340BB60FB681A02BB68134343F0BF63C3
:103A480043F40033BB60044ABB68D36000BF14373B
:103A5800BD465DF8047B704700ED00E080B400AF20
:103A6800044BDB681B0A03F007031846BD465DF8E4
:103A7800047B704700ED00E080B483B000AF0346DC
:103A8800FB7197F90730002B0BDBFB7903F01F0262
:103A9800074997F907305B09012000FA02F241F85B
:103AA800232000BF0C37BD465DF8047B704700BF7C
:103AB80000E100E080B483B000AF03463960FB71D9
:103AC80097F90730002B0ADB3B68DAB20C4997F903
:103AD80007301201D2B20B4483F800230AE03B6896
:103AE800DAB20849FB7903F00F03043B1201D2B2A2
:103AF8000B441A7600BF0C37BD465DF8047B70474F
:103B080000E100E000ED00E080B489B000AFF860AB
:103B1800B9607A60FB6803F00703FB61FB69C3F1D6
:103B28000703042B28BF0423BB61FB690433062B5E
:103B380002D9FB69033B00E000237B614FF0FF32B1
:103B4800BB6902FA03F3DA43BB681A407B699A40FF
:103B58004FF0FF317B6901FA03F3D9437B680B40CF
:103B6800134318462437BD465DF8047B70470000B0
:103B780080B582B000AF78607B68013BB3F1807F8D
:103B880001D301230FE00A4A7B68013B53600F21F0
:103B98004FF0FF30FFF78EFF054B00229A60044B71
:103BA80007221A60002318460837BD4680BD00BFAB
:103BB80010E000E080B582B000AF78607868FFF769
:103BC80029FF00BF0837BD4680BD80B586B000AF6D
:103BD8000346B9607A60FB7300237B61FFF73EFF01
:103BE80078617A68B9687869FFF78EFF024697F9B5
:103BF8000F3011461846FFF75DFF00BF1837BD4666
:103C080080BD80B582B000AF0346FB7197F90730DD
:103C18001846FFF731FF00BF0837BD4680BD80B5A5
:103C280082B000AF78607868FFF7A2FF03461846B5
:103C38000837BD4680BD000080B500AF0E4B1B683D
:103C48000D4A43F4007313600B4B1B680A4A43F494
:103C580080631360084B1B68074A43F48073136042
:103C68000320FFF7A7FF0F2000F008F8FDF7C4FDB9
:103C78000023184680BD00BF003C024080B582B0DA
:103C880000AF7860124B1A68124B1B7819464FF434
:103C98007A73B3FBF1F3B2FBF3F31846FFF7BFFFF8
:103CA8000346002B01D001230EE07B680F2B0AD8B6
:103CB800002279684FF0FF30FFF787FF064A7B68DC
:103CC8001360002300E0012318460837BD4680BD75
:103CD800040000200C0000200800002080B400AF81
:103CE800064B1B781A46064B1B681344044A13609C
:103CF80000BFBD465DF8047B704700BF0C00002084
:103D08006442012080B400AF034B1B681846BD46CF
:103D18005DF8047B704700BF6442012080B584B021
:103D280000AF7860FFF7EEFFB8607B68FB60FB6868
:103D3800B3F1FF3F05D00A4B1B781A46FB681344C2
:103D4800FB6000BFFFF7DEFF0246BB68D31AFA68C4
:103D58009A42F7D800BF00BF1037BD4680BD00BFEC
:103D68000C00002080B582B000AF78607B68002B23
:103D780001D1012341E07B6893F83D30DBB2002B91
:103D880006D17B68002283F83C207868FDF728FE7E
:103D98007B68022283F83D207B681A687B680433BD
:103DA8001946104600F07EFA7B68012283F8462007
:103DB8007B68012283F83E207B68012283F83F203C
:103DC8007B68012283F840207B68012283F8412028
:103DD8007B68012283F842207B68012283F8432014
:103DE8007B68012283F844207B68012283F8452000
:103DF8007B68012283F83D20002318460837BD461A
:103E080080BD000080B485B000AF78607B6893F80F
:103E18003D30DBB2012B01D001234EE07B6802224A
:103E280083F83D207B681B68DA687B681B6842F072
:103E38000102DA607B681B68234A934222D07B68C0
:103E48001B68B3F1804F1DD07B681B681F4A9342E3
:103E580018D07B681B681E4A934213D07B681B6886
:103E68001C4A93420ED07B681B681B4A934209D0B8
:103E78007B681B68194A934204D07B681B68184A00
:103E8800934211D17B681B689B6803F00703FB60B2
:103E9800FB68062B10D07B681B681A687B681B6858
:103EA80042F001021A6007E07B681B681A687B68A9
:103EB8001B6842F001021A60002318461437BD46F9
:103EC8005DF8047B704700BF00000140000400401B
:103ED80000080040000C0040000401400040014080
:103EE8000018004080B584B000AF78607B681B681C
:103EF800DB68FB607B681B681B69BB60BB6803F001
:103F08000203002B20D0FB6803F00203002B1BD018
:103F18007B681B686FF002021A617B6801221A77BE
:103F28007B681B689B6903F00303002B03D0786848
:103F380000F099F905E0786800F08BF9786800F0EE
:103F48009CF97B6800221A77BB6803F00403002BF6
:103F580020D0FB6803F00403002B1BD07B681B6890
:103F68006FF004021A617B6802221A777B681B686B
:103F78009B6903F44073002B03D0786800F073F951
:103F880005E0786800F065F9786800F076F97B68F4
:103F980000221A77BB6803F00803002B20D0FB68C7
:103FA80003F00803002B1BD07B681B686FF0080226
:103FB8001A617B6804221A777B681B68DB6903F047
:103FC8000303002B03D0786800F04DF905E078680A
:103FD80000F03FF9786800F050F97B6800221A7702
:103FE800BB6803F01003002B20D0FB6803F010031C
:103FF800002B1BD07B681B686FF010021A617B686E
:1040080008221A777B681B68DB6903F44073002B6E
:1040180003D0786800F027F905E0786800F019F90E
:10402800786800F02AF97B6800221A77BB6803F0E9
:104038000103002B0CD0FB6803F00103002B07D011
:104048007B681B686FF001021A617868FDF724F934
:10405800BB6803F08003002B0CD0FB6803F08003DF
:10406800002B07D07B681B686FF080021A617868A4
:1040780000F0E4FABB6803F04003002B0CD0FB68A7
:1040880003F04003002B07D07B681B686FF04002E9
:104098001A61786800F0FBF8BB6803F02003002B76
:1040A8000CD0FB6803F02003002B07D07B681B684B
:1040B8006FF020021A61786800F0B6FA00BF103776
:1040C800BD4680BD80B584B000AF786039600023FC
:1040D800FB737B6893F83C30012B01D10223B4E0D9
:1040E8007B68012283F83C207B68022283F83D200C
:1040F8007B681B689B68BB60BB6823F07703BB6069
:10410800BB6823F47F43BB607B681B68BA689A600E
:104118003B681B68B3F5005F3ED0B3F5005F00F263
:104128008780B3F5805F00F08680B3F5805F7FD825
:10413800702B1AD0702B7BD8602B50D0602B77D87F
:10414800502B3CD0502B73D8402B58D0402B6FD8D5
:10415800302B64D0302B6BD8202B60D0202B67D825
:10416800002B5CD0102B5AD062E07B6818683B6843
:1041780099683B685A683B68DB6800F0B9F97B6866
:104188001B689B68BB60BB6843F07703BB607B68B8
:104198001B68BA689A604FE07B6818683B68996842
:1041A8003B685A683B68DB6800F0A2F97B681B68CB
:1041B8009A687B681B6842F480429A603CE07B689E
:1041C80018683B6859683B68DB681A4600F016F9BE
:1041D8007B681B685021184600F06FF92CE07B685B
:1041E80018683B6859683B68DB681A4600F035F97F
:1041F8007B681B686021184600F05FF91CE07B684B
:1042080018683B6859683B68DB681A4600F0F6F89E
:104218007B681B684021184600F04FF90CE07B686A
:104228001A683B681B681946104600F046F903E017
:104238000123FB7300E000BF7B68012283F83D2067
:104248007B68002283F83C20FB7B18461037BD466C
:1042580080BD80B483B000AF786000BF0C37BD4626
:104268005DF8047B704780B483B000AF786000BF0E
:104278000C37BD465DF8047B704780B483B000AF4F
:10428800786000BF0C37BD465DF8047B704780B48A
:1042980083B000AF786000BF0C37BD465DF8047B83
:1042A8007047000080B485B000AF786039607B68E3
:1042B8001B68FB607B68464A934213D07B68B3F166
:1042C800804F0FD07B68434A93420BD07B68424AA9
:1042D800934207D07B68414A934203D07B68404AA7
:1042E800934208D1FB6823F07003FB603B685B686E
:1042F800FA681343FB607B68354A93422BD07B688E
:10430800B3F1804F27D07B68324A934223D07B6831
:10431800314A93421FD07B68304A93421BD07B6856
:104328002F4A934217D07B682E4A934213D07B685A
:104338002D4A93420FD07B682C4A93420BD07B685E
:104348002B4A934207D07B682A4A934203D07B6862
:10435800294A934208D1FB6823F44073FB603B6809
:10436800DB68FA681343FB60FB6823F080023B6854
:104378005B691343FB607B68FA681A603B689A685C
:104388007B68DA623B681A687B689A627B68104AC5
:10439800934203D07B68124A934203D13B681A695F
:1043A8007B681A637B6801225A617B681B6903F08A
:1043B8000103012B05D17B681B6923F001027B688F
:1043C8001A6100BF1437BD465DF8047B704700BF13
:1043D800000001400004004000080040000C0040BC
:1043E80000040140004001400044014000480140F1
:1043F80000180040001C00400020004080B487B036
:1044080000AFF860B9607A60FB681B6A7B61FB6883
:104418001B6A23F00102FB681A62FB689B693B6117
:104428003B6923F0F0033B617B681B013A69134346
:104438003B617B6923F00A037B617A69BB6813439C
:104448007B61FB683A699A61FB687A691A6200BF06
:104458001C37BD465DF8047B704780B487B000AF59
:10446800F860B9607A60FB681B6A7B61FB681B6A4D
:1044780023F01002FB681A62FB689B693B613B6989
:1044880023F470433B617B681B033A6913433B6128
:104498007B6923F0A0037B61BB681B017A69134326
:1044A8007B61FB683A699A61FB687A691A6200BFA6
:1044B8001C37BD465DF8047B704780B485B000AFFB
:1044C800786039607B689B68FB60FB6823F0700349
:1044D800FB603A68FB68134343F00703FB607B68A3
:1044E800FA689A6000BF1437BD465DF8047B7047D0
:1044F80080B487B000AFF860B9607A603B60FB6851
:104508009B687B617B6923F47F437B613B681A026C
:104518007B681A43BB6813437A6913437B61FB6862
:104528007A699A6000BF1C37BD465DF8047B704706
:1045380080B485B000AF786039607B6893F83C3010
:10454800012B01D102235AE07B68012283F83C2029
:104558007B68022283F83D207B681B685B68FB60F0
:104568007B681B689B68BB60FB6823F07003FB607B
:104578003B681B68FA681343FB607B681B68FA6832
:104588005A607B681B68214A934222D07B681B686B
:10459800B3F1804F1DD07B681B681D4A934218D029
:1045A8007B681B681B4A934213D07B681B681A4AB6
:1045B80093420ED07B681B68184A934209D07B68E7
:1045C8001B68174A934204D07B681B68154A9342BC
:1045D8000CD1BB6823F08003BB603B685B68BA689A
:1045E8001343BB607B681B68BA689A607B680122CA
:1045F80083F83D207B68002283F83C20002318467E
:104608001437BD465DF8047B704700BF00000140C9
:104618000004004000080040000C00400004014075
:10462800004001400018004080B483B000AF7860BB
:1046380000BF0C37BD465DF8047B704780B483B07B
:1046480000AF786000BF0C37BD465DF8047B70474B
:1046580080B582B000AF78607B68002B01D1012360
:1046680042E07B6893F84130DBB2002B06D17B68CF
:10467800002283F840207868FDF702FA7B6824223C
:1046880083F841207B681B68DA687B681B6822F422
:104698000052DA60786800F0A1FE7B681B681A692E
:1046A8007B681B6822F490421A617B681B685A6910
:1046B8007B681B6822F02A025A617B681B68DA68EB
:1046C8007B681B6842F40052DA607B6800225A64F7
:1046D8007B68202283F841207B68202283F84220CF
:1046E8007B6800225A63002318460837BD4680BD00
:1046F80080B58CB000AFF860B9601346FB80FB68EA
:1047080093F84230DBB2202B4AD1BB68002B02D091
:10471800FB88002B01D1012343E0FB6801221A63C7
:10472800FB6800225A63FB881A46B968F86800F0EB
:10473800F5FB034687F82F3097F82F30002B2CD144
:10474800FB681B6B012B25D100233B61FB681B68B1
:104758001B683B61FB681B685B683B613B69FB68E6
:104768001B680C33BB61BB6953E8003F7B617B6905
:1047780043F01003BB62FB681B680C33BA6A7A62A9
:104788003B62396A7A6A41E80023FB61FB69002BC6
:10479800E5D102E0012387F82F3097F82F3000E0A9
:1047A800022318463037BD4680BD000080B5BAB038
:1047B80000AF78607B681B681B68C7F8E4307B68CB
:1047C8001B68DB68C7F8E0307B681B685B69C7F863
:1047D800DC300023C7F8D8300023C7F8D430D7F826
:1047E800E43003F00F03C7F8D830D7F8D830002BDF
:1047F8000FD1D7F8E43003F02003002B09D0D7F805
:10480800E03003F02003002B03D0786800F027FD88
:104818005BE2D7F8D830002B00F0DE80D7F8DC3028
:1048280003F00103002B06D1D7F8E03003F49073AE
:10483800002B00F0D180D7F8E43003F00103002BFF
:104848000BD0D7F8E03003F48073002B05D07B68D9
:104858005B6C43F001027B685A64D7F8E43003F0DC
:104868000403002B0BD0D7F8DC3003F00103002B36
:1048780005D07B685B6C43F002027B685A64D7F80A
:10488800E43003F00203002B0BD0D7F8DC3003F040
:104898000103002B05D07B685B6C43F004027B6846
:1048A8005A64D7F8E43003F00803002B11D0D7F886
:1048B800E03003F02003002B05D1D7F8DC3003F0FB
:1048C8000103002B05D07B685B6C43F008027B6812
:1048D8005A647B685B6C002B00F0F281D7F8E430F7
:1048E80003F02003002B08D0D7F8E03003F02003B2
:1048F800002B02D0786800F0B2FC7B681B685B690B
:1049080003F04003402B0CBF01230023DBB2C7F8A0
:10491800D4307B685B6C03F00803002B03D1D7F815
:10492800D430002B4FD0786800F0BAFB7B681B6846
:104938005B6903F04003402B41D17B681B6814334B
:10494800C7F89C30D7F89C3053E8003FC7F8983038
:10495800D7F8983023F04003C7F8D0307B681B683D
:104968001433D7F8D020C7F8A820C7F8A430D7F850
:10497800A410D7F8A82041E80023C7F8A030D7F83A
:10498800A030002BD9D17B68DB6B002B13D07B6860
:10499800DB6B7E4A1A657B68DB6B1846FEF7AEFD5B
:1049A8000346002B16D07B68DB6B1B6D7A68D26BD5
:1049B800104698470EE0786800F0A8F90AE0786891
:1049C80000F0A4F906E0786800F0A0F97B680022FE
:1049D8005A6475E100BF73E17B681B6B012B40F0E3
:1049E8004F81D7F8E43003F01003002B00F0488122
:1049F800D7F8E03003F01003002B00F041810023CA
:104A0800BB607B681B681B68BB607B681B685B6856
:104A1800BB60BB687B681B685B6903F04003402B85
:104A280040F0B6807B68DB6B1B685B68A7F8BE301C
:104A3800B7F8BE30002B00F045817B689B8DB7F836
:104A4800BE209A4280F03E817B68B7F8BE20DA85A6
:104A58007B68DB6BDB69B3F5807F00F088807B685F
:104A68001B680C33C7F88830D7F8883053E8003F04
:104A7800C7F88430D7F8843023F48073C7F8B83087
:104A88007B681B680C33D7F8B820C7F89420C7F8A0
:104A98009030D7F89010D7F8942041E80023C7F851
:104AA8008C30D7F88C30002BD9D17B681B68143335
:104AB8007B677B6F53E8003F3B673B6F23F0010345
:104AC800C7F8B4307B681B681433D7F8B420C7F82C
:104AD8008020FB67F96FD7F8802041E80023BB6787
:104AE800BB6F002BE1D17B681B6814333B663B6EC0
:104AF80053E8003FFB65FB6D23F04003C7F8B03077
:104B08007B681B681433D7F8B020FA66BB66B96EA9
:104B1800FA6E41E800237B667B6E002BE3D17B684D
:104B2800202283F842207B6800221A637B681B6876
:104B38000C33FB64FB6C53E8003FBB64BB6C23F095
:104B48001003C7F8AC307B681B680C33D7F8AC206F
:104B5800BA657B65796DBA6D41E800233B653B6DAD
:104B6800002BE3D17B68DB6B1846FEF757FC7B68AC
:104B780002225A637B689A8D7B68DB8D9BB2D31ABD
:104B88009BB219467868FCF7BFFB9BE06F510008A1
:104B98007B689A8D7B68DB8D9BB2D31AA7F8CE30E1
:104BA8007B68DB8D9BB2002B00F08E80B7F8CE308F
:104BB800002B00F089807B681B680C33BB63BB6BE0
:104BC80053E8003F7B637B6B23F49073C7F8C830CE
:104BD8007B681B680C33D7F8C8207A643B64396C4F
:104BE8007A6C41E80023FB63FB6B002BE3D17B6805
:104BF8001B6814337B627B6A53E8003F3B623B6A65
:104C080023F00103C7F8C4307B681B681433D7F856
:104C1800C4203A63FB62F96A3A6B41E80023BB623D
:104C2800BB6A002BE3D17B68202283F842207B6893
:104C380000221A637B681B680C333B613B6953E8AD
:104C4800003FFB60FB6823F01003C7F8C0307B68A7
:104C58001B680C33D7F8C020FA61BB61B969FA69DF
:104C680041E800237B617B69002BE3D17B6802224A
:104C78005A63B7F8CE3019467868FCF745FB23E04D
:104C8800D7F8E43003F08003002B09D0D7F8E030E0
:104C980003F08003002B03D0786800F078FA14E062
:104CA800D7F8E43003F04003002B0ED0D7F8E030FB
:104CB80003F04003002B08D0786800F0B8FA04E04D
:104CC80000BF02E000BF00E000BFE837BD4680BD7E
:104CD80080B483B000AF786000BF0C37BD465DF884
:104CE800047B704780B483B000AF786000BF0C3796
:104CF800BD465DF8047B704780B483B000AF786030
:104D080000BF0C37BD465DF8047B704780B483B0A4
:104D180000AF786000BF0C37BD465DF8047B704774
:104D280080B59CB000AF78607B689B6BFB667B6846
:104D38001B681B6803F48073002B72D1FB6E002282
:104D4800DA85FB6E1B680C33FB64FB6C53E8003F91
:104D5800BB64BB6C23F48073BB66FB6E1B680C33AF
:104D6800BA6EBA657B65796DBA6D41E800233B651B
:104D78003B6D002BE5D1FB6E1B681433BB63BB6B2B
:104D880053E8003F7B637B6B23F001037B66FB6E7C
:104D98001B6814337A6E7A643B64396C7A6C41E828
:104DA8000023FB63FB6B002BE5D1FB6E1B68143300
:104DB8007B627B6A53E8003F3B623B6A23F0400317
:104DC8003B66FB6E1B6814333A6E3A63FB62F96A02
:104DD8003A6B41E80023BB62BB6A002BE5D1FB6E4E
:104DE800202283F84220FB6E1B6B012B19D1FB6E2E
:104DF8001B680C333B613B6953E8003FFB60FB6871
:104E080023F01003FB65FB6E1B680C33FA6DFA6127
:104E1800BB61B969FA6941E800237B617B69002BB2
:104E2800E5D1FB6E00225A63FB6E1B6B012B06D18A
:104E3800FB6E9B8D1946F86EFCF766FA02E0F86E79
:104E4800FFF750FF00BF7037BD4680BD80B584B006
:104E580000AF78607B689B6BFB60FB6801225A633C
:104E6800FB681B6B012B08D1FB689B8D5B089BB211
:104E78001946F868FCF748FA02E0F868FFF73CFFC3
:104E880000BF1037BD4680BD80B584B000AF7860E4
:104E98000023FB607B689B6BBB60BB681B685B691E
:104EA80003F08003802B0CBF01230023DBB2FB60DF
:104EB800BB6893F84130DBB2212B08D1FB68002B8B
:104EC80005D0BB680022DA84B86800F0C1F8BB6876
:104ED8001B685B6903F04003402B0CBF01230023D0
:104EE800DBB2FB60BB6893F84230DBB2222B08D1FF
:104EF800FB68002B05D0BB680022DA85B86800F093
:104F0800CFF8BB685B6C43F01002BB685A64B868A2
:104F1800FFF7FCFE00BF1037BD4680BD80B598B0D6
:104F280000AFF860B9601346FB80BA68FB689A6204
:104F3800FB68FA889A85FB6800225A64FB6822227B
:104F480083F84220FB68DB6B3E4ADA63FB68DB6B65
:104F58003D4A1A64FB68DB6B3C4ADA64FB68DB6B2E
:104F680000221A6507F10803FB65FB68D86BFB682C
:104F78001B6804331946FB6D1A68FB88FEF7F6F9BF
:104F880000233B61FB681B681B683B61FB681B686F
:104F98005B683B613B69FB681B69002B19D0FB68A8
:104FA8001B680C333B643B6C53E8003FFB63FB6BB3
:104FB80043F48073BB65FB681B680C33BA6DFA64F5
:104FC800BB64B96CFA6C41E800237B647B6C002BF2
:104FD800E5D1FB681B681433FB62FB6A53E8003FAA
:104FE800BB62BB6A43F001037B65FB681B68143333
:104FF8007A6DBA637B63796BBA6B41E800233B63D4
:105008003B6B002BE5D1FB681B681433BB61BB69A4
:1050180053E8003F7B617B6943F040033B65FB68D5
:105028001B6814333A6D7A623B62396A7A6A41E8DE
:105038000023FB61FB69002BE5D10023184660378C
:10504800BD4680BD294D0008554E0008914E000808
:1050580080B489B000AF78607B681B680C33FB6054
:10506800FB6853E8003FBB60BB6823F0C003FB61EB
:105078007B681B680C33FA69BA617B617969BA6924
:1050880041E800233B613B69002BE5D17B68202286
:1050980083F8412000BF2437BD465DF8047B704784
:1050A80080B495B000AF78607B681B680C337B6375
:1050B8007B6B53E8003F3B633B6B23F49073FB64CB
:1050C8007B681B680C33FA6C3A64FB63F96B3A6CC7
:1050D80041E80023BB63BB6B002BE5D17B681B68F1
:1050E80014333B623B6A53E8003FFB61FB6923F0E2
:1050F8000103BB647B681B681433BA6CFA62BB6239
:10510800B96AFA6A41E800237B627B6A002BE5D121
:105118007B681B6B012B19D17B681B680C33FB6008
:10512800FB6853E8003FBB60BB6823F010037B6457
:105138007B681B680C337A6CBA617B617969BA69E0
:1051480041E800233B613B69002BE5D17B682022C5
:1051580083F842207B6800221A6300BF5437BD469B
:105168005DF8047B704780B584B000AF78607B68D9
:105178009B6BFB60FB680022DA85FB680022DA84FF
:10518800F868FFF7C3FD00BF1037BD4680BD80B487
:1051980085B000AF78607B6893F84130DBB2212B93
:1051A8003ED17B689B68B3F5805F14D17B681B692F
:1051B800002B10D17B681B6AFB60FB681B881A46B2
:1051C8007B681B68C2F308025A607B681B6A9A1CDA
:1051D8007B681A6208E07B681B6A591C7A6811624E
:1051E8001A787B681B685A607B68DB8C9BB2013B32
:1051F8009BB27A681946D184002B0FD17B681B6853
:10520800DA687B681B6822F08002DA607B681B68BA
:10521800DA687B681B6842F04002DA60002300E02D
:10522800022318461437BD465DF8047B704780B5E5
:1052380082B000AF78607B681B68DA687B681B689F
:1052480022F04002DA607B68202283F841207868E7
:10525800FFF73EFD002318460837BD4680BD80B5E0
:105268008CB000AF78607B6893F84230DBB2222BB9
:1052780040F0AE807B689B68B3F5805F17D17B6890
:105288001B69002B13D10023FB627B689B6ABB62FE
:105298007B681B685B689BB2C3F308039AB2BB6A5E
:1052A8001A807B689B6A9A1C7B689A6226E07B68F6
:1052B8009B6AFB620023BB627B689B68B3F5805FD7
:1052C80007D07B689B68002B0AD17B681B69002B81
:1052D80006D17B681B685B68DAB2FB6A1A7008E063
:1052E8007B681B685B68DBB203F07F03DAB2FB6A9A
:1052F8001A707B689B6A5A1C7B689A627B68DB8D94
:105308009BB2013B9BB27A681946D185002B5DD1CF
:105318007B681B68DA687B681B6822F02002DA6009
:105328007B681B68DA687B681B6822F48072DA6025
:105338007B681B685A697B681B6822F001025A6106
:105348007B68202283F842207B6800225A637B68AE
:105358001B6B012B35D17B6800221A637B681B68A5
:105368000C337B617B6953E8003F3B613B6923F069
:1053780010037B627B681B680C337A6A3A62FB61B4
:10538800F9693A6A41E80023BB61BB69002BE5D1A2
:105398007B681B681B6803F01003102B0AD10023DD
:1053A800FB607B681B681B68FB607B681B685B682D
:1053B800FB60FB687B689B8D19467868FBF7A4FF48
:1053C80002E07868FFF78EFC002302E0002300E08B
:1053D800022318463037BD4680BD00002DE9B04F86
:1053E800C0B000AFC7F8F400D7F8F4301B681B69E9
:1053F80023F44050D7F8F430D968D7F8F4301A6855
:1054080040EA01031361D7F8F4309A68D7F8F4300A
:105418001B691A43D7F8F4305B691A43D7F8F4309C
:10542800DB691343C7F8F830D7F8F4301B68DB683A
:1054380023F4164121F00C01D7F8F4301A68D7F894
:10544800F8300B43D360D7F8F4301B685B6923F45A
:105458004070D7F8F4309969D7F8F4301A6840EA00
:1054680001035361D7F8F4301A688F4B9A4205D07C
:10547800D7F8F4301A688D4B9A4204D1FDF7FEFC38
:10548800C7F8FC0003E0FDF7E5FCC7F8FC00D7F817
:10549800F430DB69B3F5004F40F00C81D7F8FC30ED
:1054A8000022C7F8E830C7F8EC20D7E93A45224689
:1054B8002B469118B9655B41FB65D7E91623214650
:1054C80012EB0108294643EB01094FF000024FF0A7
:1054D80000034FEAC90343EA58734FEAC8029046EB
:1054E8009946234618EB0303C7F8E0302B4649EBEF
:1054F8000303C7F8E430D7F8F4305B680022C7F834
:10550800D830C7F8DC20D7E936120B46DB183B65E4
:10551800134642EB03037B65D7E91423D7E9380127
:10552800FAF7ECFE02460B46614BA3FB02235B092C
:105538001C01D7F8FC300022C7F8D030C7F8D420B7
:10554800D7E9348942464B469118B9645B41FB64FC
:10555800D7E91223414612EB010A494643EB010BF6
:105568004FF000024FF000034FEACB0343EA5A73AF
:105578004FEACA0292469B4643461AEB0303C7F812
:10558800C8304B464BEB0303C7F8CC30D7F8F430A0
:105598005B680022C7F8C030C7F8C420D7E93012CA
:1055A8000B46DB183B64134642EB03037B64D7E9E5
:1055B8001023D7E93201FAF7A1FE02460B4611463D
:1055C8003B4BA3FB01235B09642202FB03F3CB1AC9
:1055D800DB0003F13202364BA3FB02235B095B00BD
:1055E80003F4F8731C44D7F8FC300022C7F8B8302D
:1055F800C7F8BC20D7E92E8942464B469118B963B3
:105608005B41FB63D7E90E2341465118396349468C
:105618004B417B634FF000024FF00003D7E90CAB1E
:105628005946CB00514643EA51735146CA001046C9
:105638001946034642469B18C7F8B0304B460A46FF
:1056480042EB0303C7F8B430D7F8F4305B680022A4
:10565800C7F8A830C7F8AC20D7E92A120B46DB18E0
:10566800BB62134642EB0303FB62D7E90A23D7E97F
:105678002C01FAF743FE02460B460D4BA3FB02131F
:105688005B09642101FB03F3D31ADB003233084AB8
:10569800A2FB03235B0903F00702D7F8F4301B6869
:1056A80022449A6006E100BF001001400014014046
:1056B8001F85EB51D7F8FC300022C7F8A030C7F897
:1056C800A420D7E9288942464B46911839625B41A4
:1056D8007B62D7E9082341465418494643EB010544
:1056E8004FF000024FF00003EB0043EA5473E2006E
:1056F80014461D464346E318C7F898304B4645EB19
:105708000303C7F89C30D7F8F4305B680022C7F869
:105718009030C7F894204FF000024FF00003D7E90B
:10572800244529468B00214643EA917321468A0085
:10573800D7E92601FAF7E2FD02460B46604BA3FBC8
:1057480002235B091C01D7F8FC300022C7F8883017
:10575800C7F88C20D7E9228942464B469118B9618F
:105768005B41FB61D7E90623414651183961494637
:105778004B417B614FF000024FF00003D7E904ABC7
:105788005946CB00514643EA51735146CA00104668
:105798001946034642469B18C7F880304B460A46CE
:1057A80042EB0303C7F88430D7F8F4305B68002273
:1057B800BB67FA674FF000024FF00003D7E91E8974
:1057C80049468B00414643EA917341468A00D7E92E
:1057D8002001FAF793FD02460B461146384BA3FB0E
:1057E80001235B09642202FB03F3CB1A1B0132334A
:1057F800334AA2FB03235B0903F0F0031C44D7F8E8
:10580800FC3000223B677A67D7E91C8942464B4641
:105818009118B9605B41FB60D7E9022341465118F2
:10582800396049464B417B604FF000024FF000035E
:10583800D7E900AB5946CB00514643EA517351466C
:10584800CA0010461946034642469B18BB664B469B
:105858000A4642EB0303FB66D7F8F4305B68002284
:105868003B667A664FF000024FF00003D7E91889CB
:1058780049468B00414643EA917341468A00D7E97D
:105888001A01FAF73BFD02460B460D4BA3FB021328
:105898005B09642101FB03F3D31A1B013233084A65
:1058A800A2FB03235B0903F00F02D7F8F4301B684F
:1058B80022449A6000BF07F58077BD46BDE8B08FE7
:1058C8001F85EB51DFF834D0FCF72AF80C480D4956
:1058D8000D4A002302E0D458C4500433C4188C4243
:1058E800F9D30A4A0A4C002301E013600432A242A9
:1058F800FBD3FAF789FCFBF719FD7047000002207B
:105908000000002010000020608D0008100000201A
:1059180068420120FEE70000F8B500BFF8BC08BCEB
:105928009E467047F8B500BFF8BC08BC9E46704755
:105938000000000000000000000000000000040457
:10594800040404000004000014140A00000000000D
:105958000000000000000A0A1F0A0A1F0A0A0000C5
:1059680000040E1505060C14150E0400000012158F
:105978000D152E2C2A1200000000040A0A361515EF
:1059880029160000020201000000000000000000CB
:105998001008080404040404080810000204040899
:1059A800080808080404020000000004150E0E157B
:1059B8000400000000000008083E0808000000007D
:1059C80000000000000000000202010000000000CA
:1059D800003F000000000000000000000000000080
:1059E8000002000000201010080804040202010050
:1059F80000000E1111111111110E00000000040613
:105A080004040404040E000000000E11110804022E
:105A1800011F000000000E11100C1010110E0000E4
:105A28000000080C0C0A091F081C000000001F01D8
:105A3800010F1110110E000000000C12010D1311BE
:105A4800110E000000001E100808040404040000E1
:105A580000000E11110E1111110E000000000E11A0
:105A680011191610090600000000000004000000CB
:105A7800000400000000000000040000000404000E
:105A880000001008040202040810000000000000D2
:105A98003F003F000000000000000204081010084A
:105AA8000402000000000E111108040400040000A4
:105AB80000001C22292D2D1D221C000000000404BA
:105AC8000C0A0A1E1233000000000F12120E1212E6
